:02000000D32B00
:10000600103083120313FD00FD0B072800000800C3
:10001600083083120313FC002330FD00FD0B11286A
:06002600FC0B112808008C
:04002C0000000800C8
:1000300083160313D81B1F288312861121288312CD
:1000400086158316581B2728831206112928831228
:1000500006158316D81A2F2883128610312883128A
:1000600086148316581A37288312061039288312EB
:1000700006146A183D2806163E2806128616162013
:1000800086128316D81947288312861149288312AD
:100090008615831658194F2883120611512883128A
:1000A00006158316D81857288312861059288312EC
:1000B0008614831658185F2883120610612883124D
:1000C00006146A1865280616662806128616162073
:0E00D00086126A1C6D280B206E280320080083
:1000DE0083120313F801F9011030FC00710DF80DB5
:1000EE00F90D7408F8027508031C750FF902031850
:1000FE0087287408F80775080318750FF907031099
:0A010E00F00DF10DFC0B7528080040
:08011800FA1FF2130030080089
:100120007B15FB1F9A280130F300F201F101F00169
:08013000FA0DF20CFF3008008B
:0E013800F201F101F001F801F30100300800BE
:0E014600073083120313FD00FD0BA7280800ED
:10015400FB14FB1FB428FF30F300F200F100F000A1
:08016400FA0DF20CFF30080057
:10016C00A0017208031DCB287108F2007008F10081
:10017C00F001A0157208031DCB287108F200F101E3
:10018C00A011201672080319D9282008F302031DA8
:10019C00031CDD280310F21BE128F00DF10DF20D0C
:1001AC00F30BD128DD280130FC009C20E428023020
:0E01BC00FC009020E4280430FC008C20080099
:1001CA007B14FB1FF028F201FA1FFF30F200F10046
:0A01DA00F000FA0DF20CFF300800EF
:1001E40083160313D6010530560203180029560856
:1001F4005507840020308000D60AF5285608550794
:1002040084008001D60356085507D7000A30F4004D
:10021400F5015308F0005408F1006F207808F0004D
:100224007908F1003030F00783165708840070080D
:1002340080000A30F400F5015308F0005408F1007E
:100244006F2070088316D3007108D4000030710643
:10025400031D2E2900307006031D31293329D603CE
:040264000529080060
:10026800831203136A1083165308D80018206A14DF
:0202780008007C
:0E027A008312031369088A00680882000800D6
:10028800831203131A08F100981C4C291812181627
:060298007108F0000800EF
:10029E0083120313FB017308031D77080319A629A4
:1002AE0072087606FA007708F3077E30031C63297E
:1002BE00F3020318A9296629F302031CAC2972085C
:1002CE00F8007108FC007008FD00F817F61703100F
:1002DE00F201F101F0011830A0007D1C8029740894
:1002EE00F00775080318750FF10776080318760FD7
:1002FE00F207F20CF10CF00CF80CFC0CFD0C0310D8
:10030E00A00B7429F21B9029F80DF00DF10DF20DD2
:10031E00F3037B1B701CA229F81FA229F00A0319F4
:10032E00F10A0319F20A031DA229F20CF10CF00CCA
:10033E00F30A0319A929FA1FF2130030AE2901306E
:10034E009C20AE290230AA20AE2904309020000055
:02035E00080095
:1003600083120313FB0173080319ED297208FA00C5
:10037000F2178E30F302F31FF029F309F30A083065
:100380007302031CD329F300F10D7208F100F2018E
:1003900008307302031CD329F300F10DF101730837
:1003A000031D0310DB2973080319DB290310F20C6A
:1003B000F10CF30BD6297B1B711CE529031CE529E5
:1003C000F10A0319F20AF21BFC29FA1FFF29F209AC
:1003D000F109F10A0319F20AFF29F201F101FF29DB
:1003E0007B14FB1F022AF201FA1F022AFF30F200DF
:1003F000F100FA0DF20C022A0130FC00042A003050
:10040000FC00042AFF30FC00FC080319082AE52040
:0A0410007108F0007208F100080006
:0E041A000030831203138C1A0130F00008002A
:1004280083160313CF01D0014A08D1004B08D2002C
:1004380080304B06F00080307002031D252A003002
:100448004A020318332A0130CF000030D0004A088E
:10045800003CD1004B08031C013ED201D2025108D6
:10046800D3005208D4004C08D500F2200630CD0045
:100478000030CE004E08003C031D442A4D08003CC5
:1004880003185F2A4D084C07F20001304D02F000B6
:100498000030031C013E4E02F10070084C07840036
:1004A8000008F00072088400700880000130CD0256
:1004B800031CCE033E2A4C088400203080004F08DD
:1004C800500403197D2ACD01CE014D084C07840044
:1004D8000008203A031D742ACD0A0319CE0A692A96
:1004E8000130CD02031CCE034D084C0784002D308B
:0404F8008000080078
:1004FC00831203139F01C0309F0483161F179F178D
:10050C004A08F000F00D7010F00D7010F00D701026
:10051C00700883129F041F14A3201F151F1D982AF7
:10052C000000942A1F101E08F100F00183161E080B
:08053C00F0040030F104080096
:10054400831203137008F8007108F000F101F2013E
:10055400F301FB01FC019630F300FA01F01FB82A05
:10056400F809F009F80A0319F00AFA177008F100FB
:0C0574007808F000F801F201B620080041
:1005800083120313FA017308031D7A147708031DFD
:10059000FA147A0803190C2B033A0319D72A7A188C
:1005A000D42AF61F0A2B082BF21F082B0A2B7208DD
:1005B0008039FA00F21376088039F6137A060319A7
:1005C000E52A7A080319082B0A2B77087302031906
:1005D000EC2A031C002B042B760872020319F32A61
:1005E000031C002B042B750871020319FA2A031C43
:1005F000002B042B7408700203190C2B0318042B16
:10060000FA0803190A2B082BFA080319082B0A2BDE
:100610000314080003100800031403150800080061
:10062000831203137008F8007108F000F101F20161
:10063000F301FB01FC019630F300FA017008F100B0
:0C0640007808F000F801F201B620080074
:10064C00382B803083160313CA004B2BC030CA00E2
:10065C004B2B9430CA004B2BD430CA004B2B803020
:10066C00CA004B2B831603134A08013A0319272B94
:10067C004A08023A03192C2B4A08033A03192F2B68
:10068C004A08043A0319322B352B4B03F0004A0865
:10069C00F0077008CA007008D80018206A1083167A
:1006AC00CD014D084C07840000080319662B4D083A
:1006BC004C0784000008D30034218316CD0A572B35
:0606CC0083126A1408000D
:1006D2008316031398169030831298008316871797
:1006E200071383128C1E782B1A08F000722B080055
:1006F200831603138612061206108610061186113F
:1007020083128612061286110611861006100B201D
:100712000B200B20861406148616162086120B2038
:100722008616162086120B208616162086120B209D
:1007320006108616162086120B20861616208612A2
:10074200861086158616162086120B208611061430
:1007520086161620861206108616162086120B2082
:1007620086161620861206148616162086120B206E
:10077200061086161620861286150615861406148D
:0C0782008616162086120B206A14080050
:10078E003D218A110A128000840AE80A0319E90A37
:08079E00F003031DC72B080046
:1007A600842683160313BD01BE01BF01C001C1012A
:1007B600C2010130C3000030C400C501C601C70133
:1007C600C8010330850083128501013090008E0137
:1007D6008F01B8308316870083128701F0308316A5
:1007E6008800831288011930831699001815692329
:1007F6000230FB008630FC009930FD00FD0B012C19
:10080600FC0B012CFB0B012C8230FC00DD30FD00C3
:10081600FD0B0B2CFC0B0B2C0000000079230C307D
:100826008316D80018208316430844040319C82CDD
:100836000130CA000130CB002130CC0026230D2226
:100846007008013A031D342C83164508AB3EC900D7
:10085600442183164908840070088000C50A0319DC
:10086600C60A831600304606031D3B2C013045069A
:10087600031D442C0230CA000130CB005E30CC0090
:100886002623003083164606031D4B2C02304506F0
:10089600031D542C0230CA000230CB005C30CC0061
:1008A6002623003083164606031D5B2C03304506BF
:1008B600031D642C0230CA000330CB006030CC002C
:1008C6002623003083164606031D6B2C043045068E
:1008D600031DC72C2B08463A031D9F2C2C08463AAD
:1008E600031D9F2C2D08523A031D9F2C2E084C3AAF
:1008F600031D9F2C0130D800182001308316CA0032
:100906000530CB00A030CC0026230330FB00083096
:10091600FC007730FD00FD0B8E2CFC0B8E2CFB0BA8
:100926008E2C01308316D800182001308316C100A2
:100936000030C200C301C40100304206031DA52CCD
:1009460000304106031DC72C00304406031DAD2CA4
:1009560001304306031DC72C0230CA000130CB000C
:100966006230CC0026238230FC00DD30FD00FD0B1A
:10097600BA2CFC0BBA2C0000000001308316D800FC
:1009860018208316C501C601162C83164108420499
:1009960003192C2E0D227008013A031DD52C442173
:1009A6007008EF006F08443A031D3F2D013083168F
:1009B600D800182007140330FD00FD0BE02C0710AB
:1009C6008E018F018719E82CE52C1014871DEC2C5D
:1009D600E92C10100F088316BF00C0013F08F10074
:1009E600F0017008BF007108C00083120E08F00401
:1009F6000030F10470088316BF007108C000A222FF
:100A0600DE30F4009330F5000730F6007930F70059
:100A16004F21B02170088316BD007108BE008030DA
:100A26007106F20080307202031D1B2D0030700229
:100A360003181F2DBD01BE013D08CA003E08CB00AC
:100A4600B630CC0014220230CA000130CB00B630DA
:100A5600CC0026230B30FB002630FC005D30FD0069
:100A6600FD0B332DFC0B332DFB0B332D000000004B
:100A760001308316D800182001308316CA007E2262
:100A860010237008EB007108EC007208ED00730883
:100A9600EE000030F4000030F5001630F600873026
:100AA600F700C0220130031C0030F0007008031963
:100AB6005D2D07150030F4000030F5001630F60005
:100AC6008730F7006B08F0006C08F1006D08F20043
:100AD6006E08F300C022013003180030F0007008E1
:100AE6000319762D07118316CA017E22A2227D30B4
:100AF600F4003E30F5007A30F6007D30F7004F21E5
:100B0600B02170088316CA007108CB00AF30CC0044
:100B160014220130CA000130CB003830CC00262325
:100B260001308316CA000630CB00AF30CC00262336
:100B3600081AC62D01308316D80018200330FB0092
:100B46008A30FC005530FD00FD0BA72DFC0BA72DB0
:100B5600FB0BA72D0000000001308316CA000130F0
:100B6600CB003030CC0026230330FB008A30FC005B
:100B76005530FD00FD0BBD2DFC0BBD2DFB0BBD2D1A
:100B8600000000009B2D881ED02D02308316CA005F
:100B96000130CB003E30CC002623881ADA2D0230F5
:100BA6008316CA000130CB004D30CC002623081B2B
:100BB600DD2D8710081FE02D87146F08533A031D9B
:100BC600E82D88018316C701C80183126F08463ACB
:100BD600031DEF2D053088006F08423A031DF52DE1
:100BE6000A3088006F08523A031DFB2D0930880031
:100BF6006F084C3A031D012E063088006F084A3AEA
:100C0600031D0A2E01308316C7000030C800831664
:100C160000304806031D112E01304706031D2B2EFA
:100C26008312071A192E871A192E8801071E1F2EDE
:100C3600871A1F2E06308800071A252E871E252E96
:100C460009308800071E2B2E871E2B2E05308800A4
:040C5600C82C2C2E4C
:100D080021308400473083120313F0003230E800AA
:100D18000630E900C723A03084000B308312031388
:0E0D2800F0007930E8000630E900C72308002B
:100C640045346E3474346534723420345034613411
:0E0C74007334733477346F3472346434003464
:100C82005734613472346E3469346E3467340034EC
:0C0C9200543465346D3470343D3400344B
:100C9E00483475346D3461346E34203444346534E4
:0E0CAE00743465346334743465346434003453
:100CBC004E346F342034483475346D3461346E34B2
:0E0CCC00203446346F3475346E346434003492
:040CDA002A34003484
:040CDE002A34003480
:040CE2002A3400347C
:0C0CE600773472346F346E34673400349D
:100CF200523455344E34203445344E34473449341A
:060D02004E3445340034BC
:02400E004A2F37
:00000001FF
